{
  "contractName": "SyndicateLoan",
  "abi": [
    {
      "inputs": [],
      "stateMutability": "nonpayable",
      "type": "constructor"
    },
    {
      "anonymous": false,
      "inputs": [],
      "name": "votingCompleted",
      "type": "event"
    },
    {
      "inputs": [],
      "name": "adminBank",
      "outputs": [
        {
          "internalType": "string",
          "name": "name",
          "type": "string"
        },
        {
          "internalType": "bool",
          "name": "isAdmin",
          "type": "bool"
        },
        {
          "internalType": "bool",
          "name": "isParticipating",
          "type": "bool"
        },
        {
          "internalType": "uint256",
          "name": "riskLimit",
          "type": "uint256"
        },
        {
          "internalType": "address",
          "name": "addr",
          "type": "address"
        },
        {
          "internalType": "uint256",
          "name": "weight",
          "type": "uint256"
        },
        {
          "internalType": "bool",
          "name": "voted",
          "type": "bool"
        },
        {
          "internalType": "uint256",
          "name": "vote",
          "type": "uint256"
        }
      ],
      "stateMutability": "view",
      "type": "function",
      "constant": true
    },
    {
      "inputs": [
        {
          "internalType": "address",
          "name": "",
          "type": "address"
        }
      ],
      "name": "bankDetails",
      "outputs": [
        {
          "internalType": "string",
          "name": "name",
          "type": "string"
        },
        {
          "internalType": "bool",
          "name": "isAdmin",
          "type": "bool"
        },
        {
          "internalType": "bool",
          "name": "isParticipating",
          "type": "bool"
        },
        {
          "internalType": "uint256",
          "name": "riskLimit",
          "type": "uint256"
        },
        {
          "internalType": "address",
          "name": "addr",
          "type": "address"
        },
        {
          "internalType": "uint256",
          "name": "weight",
          "type": "uint256"
        },
        {
          "internalType": "bool",
          "name": "voted",
          "type": "bool"
        },
        {
          "internalType": "uint256",
          "name": "vote",
          "type": "uint256"
        }
      ],
      "stateMutability": "view",
      "type": "function",
      "constant": true
    },
    {
      "inputs": [
        {
          "internalType": "uint256",
          "name": "",
          "type": "uint256"
        }
      ],
      "name": "banks",
      "outputs": [
        {
          "internalType": "string",
          "name": "name",
          "type": "string"
        },
        {
          "internalType": "bool",
          "name": "isAdmin",
          "type": "bool"
        },
        {
          "internalType": "bool",
          "name": "isParticipating",
          "type": "bool"
        },
        {
          "internalType": "uint256",
          "name": "riskLimit",
          "type": "uint256"
        },
        {
          "internalType": "address",
          "name": "addr",
          "type": "address"
        },
        {
          "internalType": "uint256",
          "name": "weight",
          "type": "uint256"
        },
        {
          "internalType": "bool",
          "name": "voted",
          "type": "bool"
        },
        {
          "internalType": "uint256",
          "name": "vote",
          "type": "uint256"
        }
      ],
      "stateMutability": "view",
      "type": "function",
      "constant": true
    },
    {
      "inputs": [],
      "name": "borrower",
      "outputs": [
        {
          "internalType": "uint256",
          "name": "loanAmount",
          "type": "uint256"
        },
        {
          "internalType": "address",
          "name": "addr",
          "type": "address"
        }
      ],
      "stateMutability": "view",
      "type": "function",
      "constant": true
    },
    {
      "inputs": [
        {
          "internalType": "uint256",
          "name": "",
          "type": "uint256"
        }
      ],
      "name": "proposals",
      "outputs": [
        {
          "internalType": "string",
          "name": "name",
          "type": "string"
        },
        {
          "internalType": "uint256",
          "name": "interest",
          "type": "uint256"
        },
        {
          "internalType": "uint256",
          "name": "tenure",
          "type": "uint256"
        },
        {
          "internalType": "uint256",
          "name": "voteCount",
          "type": "uint256"
        },
        {
          "internalType": "address",
          "name": "addr",
          "type": "address"
        }
      ],
      "stateMutability": "view",
      "type": "function",
      "constant": true
    },
    {
      "inputs": [],
      "name": "stage",
      "outputs": [
        {
          "internalType": "enum SyndicateLoan.Stage",
          "name": "",
          "type": "uint8"
        }
      ],
      "stateMutability": "view",
      "type": "function",
      "constant": true
    },
    {
      "inputs": [],
      "name": "temp1",
      "outputs": [
        {
          "internalType": "string",
          "name": "name",
          "type": "string"
        },
        {
          "internalType": "bool",
          "name": "isAdmin",
          "type": "bool"
        },
        {
          "internalType": "bool",
          "name": "isParticipating",
          "type": "bool"
        },
        {
          "internalType": "uint256",
          "name": "riskLimit",
          "type": "uint256"
        },
        {
          "internalType": "address",
          "name": "addr",
          "type": "address"
        },
        {
          "internalType": "uint256",
          "name": "weight",
          "type": "uint256"
        },
        {
          "internalType": "bool",
          "name": "voted",
          "type": "bool"
        },
        {
          "internalType": "uint256",
          "name": "vote",
          "type": "uint256"
        }
      ],
      "stateMutability": "view",
      "type": "function",
      "constant": true
    },
    {
      "inputs": [
        {
          "internalType": "uint256",
          "name": "_loanAmount",
          "type": "uint256"
        },
        {
          "internalType": "address",
          "name": "_adminBankAddress",
          "type": "address"
        }
      ],
      "name": "setInitials",
      "outputs": [],
      "stateMutability": "nonpayable",
      "type": "function"
    },
    {
      "inputs": [
        {
          "internalType": "string",
          "name": "_name",
          "type": "string"
        },
        {
          "internalType": "uint256",
          "name": "_riskLimit",
          "type": "uint256"
        },
        {
          "internalType": "uint256",
          "name": "_tenure",
          "type": "uint256"
        },
        {
          "internalType": "uint256",
          "name": "_interest",
          "type": "uint256"
        }
      ],
      "name": "setAdminRiskLimit",
      "outputs": [],
      "stateMutability": "nonpayable",
      "type": "function"
    },
    {
      "inputs": [
        {
          "internalType": "string",
          "name": "_name",
          "type": "string"
        },
        {
          "internalType": "uint256",
          "name": "_riskLimit",
          "type": "uint256"
        },
        {
          "internalType": "uint256",
          "name": "_tenure",
          "type": "uint256"
        },
        {
          "internalType": "uint256",
          "name": "_interest",
          "type": "uint256"
        }
      ],
      "name": "registerBank",
      "outputs": [],
      "stateMutability": "nonpayable",
      "type": "function"
    },
    {
      "inputs": [],
      "name": "instantiateLoan",
      "outputs": [],
      "stateMutability": "payable",
      "type": "function",
      "payable": true
    },
    {
      "inputs": [],
      "name": "getBorrower",
      "outputs": [
        {
          "components": [
            {
              "internalType": "uint256",
              "name": "loanAmount",
              "type": "uint256"
            },
            {
              "internalType": "address",
              "name": "addr",
              "type": "address"
            }
          ],
          "internalType": "struct SyndicateLoan.Borrower",
          "name": "",
          "type": "tuple"
        }
      ],
      "stateMutability": "view",
      "type": "function",
      "constant": true
    },
    {
      "inputs": [],
      "name": "getStage",
      "outputs": [
        {
          "internalType": "enum SyndicateLoan.Stage",
          "name": "",
          "type": "uint8"
        }
      ],
      "stateMutability": "view",
      "type": "function",
      "constant": true
    },
    {
      "inputs": [],
      "name": "getAdminBank",
      "outputs": [
        {
          "components": [
            {
              "internalType": "string",
              "name": "name",
              "type": "string"
            },
            {
              "internalType": "bool",
              "name": "isAdmin",
              "type": "bool"
            },
            {
              "internalType": "bool",
              "name": "isParticipating",
              "type": "bool"
            },
            {
              "internalType": "uint256",
              "name": "riskLimit",
              "type": "uint256"
            },
            {
              "internalType": "address",
              "name": "addr",
              "type": "address"
            },
            {
              "internalType": "uint256",
              "name": "weight",
              "type": "uint256"
            },
            {
              "internalType": "bool",
              "name": "voted",
              "type": "bool"
            },
            {
              "internalType": "uint256",
              "name": "vote",
              "type": "uint256"
            }
          ],
          "internalType": "struct SyndicateLoan.Bank",
          "name": "",
          "type": "tuple"
        }
      ],
      "stateMutability": "view",
      "type": "function",
      "constant": true
    },
    {
      "inputs": [],
      "name": "getAllBankDetails",
      "outputs": [
        {
          "components": [
            {
              "internalType": "string",
              "name": "name",
              "type": "string"
            },
            {
              "internalType": "bool",
              "name": "isAdmin",
              "type": "bool"
            },
            {
              "internalType": "bool",
              "name": "isParticipating",
              "type": "bool"
            },
            {
              "internalType": "uint256",
              "name": "riskLimit",
              "type": "uint256"
            },
            {
              "internalType": "address",
              "name": "addr",
              "type": "address"
            },
            {
              "internalType": "uint256",
              "name": "weight",
              "type": "uint256"
            },
            {
              "internalType": "bool",
              "name": "voted",
              "type": "bool"
            },
            {
              "internalType": "uint256",
              "name": "vote",
              "type": "uint256"
            }
          ],
          "internalType": "struct SyndicateLoan.Bank[]",
          "name": "",
          "type": "tuple[]"
        }
      ],
      "stateMutability": "view",
      "type": "function",
      "constant": true
    },
    {
      "inputs": [],
      "name": "getProposal",
      "outputs": [
        {
          "components": [
            {
              "internalType": "string",
              "name": "name",
              "type": "string"
            },
            {
              "internalType": "uint256",
              "name": "interest",
              "type": "uint256"
            },
            {
              "internalType": "uint256",
              "name": "tenure",
              "type": "uint256"
            },
            {
              "internalType": "uint256",
              "name": "voteCount",
              "type": "uint256"
            },
            {
              "internalType": "address",
              "name": "addr",
              "type": "address"
            }
          ],
          "internalType": "struct SyndicateLoan.Proposal[]",
          "name": "",
          "type": "tuple[]"
        }
      ],
      "stateMutability": "view",
      "type": "function",
      "constant": true
    },
    {
      "inputs": [
        {
          "internalType": "uint256",
          "name": "toProposal",
          "type": "uint256"
        }
      ],
      "name": "vote",
      "outputs": [],
      "stateMutability": "nonpayable",
      "type": "function"
    },
    {
      "inputs": [],
      "name": "winningProposal",
      "outputs": [],
      "stateMutability": "nonpayable",
      "type": "function"
    },
    {
      "inputs": [],
      "name": "getWinningProposal",
      "outputs": [
        {
          "internalType": "uint256",
          "name": "",
          "type": "uint256"
        }
      ],
      "stateMutability": "view",
      "type": "function",
      "constant": true
    }
  ],
  "bytecode": "0x60806040526000601260006101000a81548160ff021916908360038111156200002d576200002c620000d6565b5b02179055506000601455600060165560006017553480156200004e57600080fd5b506040518060400160405280600081526020013373ffffffffffffffffffffffffffffffffffffffff16815250600080820151816000015560208201518160010160006101000a81548173ffffffffffffffffffffffffffffffffffffffff021916908373ffffffffffffffffffffffffffffffffffffffff16021790555090505062000105565b7f4e487b7100000000000000000000000000000000000000000000000000000000600052602160045260246000fd5b61350480620001156000396000f3fe6080604052600436106101135760003560e01c80635e49e82f116100a0578063b9e2bea011610064578063b9e2bea01461038c578063c040e6b8146103b7578063cab43086146103e2578063f54f0e561461040d578063fcaa76641461043857610113565b80635e49e82f146102c3578063609ff1bd146102f55780636b47c7fb1461030c5780637df1f1b914610335578063a51346201461036157610113565b8063186d95ab116100e7578063186d95ab146101ef5780631cb0c3e7146102185780631fa7d37d14610243578063249d03871461024d57806326d023f31461029157610113565b806285ae2b146101185780630121b93f1461015c578063013cf08b146101855780630f663a0d146101c6575b600080fd5b34801561012457600080fd5b5061013f600480360381019061013a919061291e565b610463565b604051610153989796959493929190612a4f565b60405180910390f35b34801561016857600080fd5b50610183600480360381019061017e919061291e565b61058a565b005b34801561019157600080fd5b506101ac60048036038101906101a7919061291e565b6107e9565b6040516101bd959493929190612ad4565b60405180910390f35b3480156101d257600080fd5b506101ed60048036038101906101e89190612c63565b6108d7565b005b3480156101fb57600080fd5b5061021660048036038101906102119190612d12565b610d51565b005b34801561022457600080fd5b5061022d610f6b565b60405161023a9190612d9f565b60405180910390f35b61024b610fe5565b005b34801561025957600080fd5b50610274600480360381019061026f9190612dba565b61114d565b604051610288989796959493929190612a4f565b60405180910390f35b34801561029d57600080fd5b506102a6611264565b6040516102ba989796959493929190612a4f565b60405180910390f35b3480156102cf57600080fd5b506102d8611369565b6040516102ec989796959493929190612a4f565b60405180910390f35b34801561030157600080fd5b5061030a61146e565b005b34801561031857600080fd5b50610333600480360381019061032e9190612c63565b611632565b005b34801561034157600080fd5b5061034a611af1565b604051610358929190612de7565b60405180910390f35b34801561036d57600080fd5b50610376611b23565b6040516103839190612e10565b60405180910390f35b34801561039857600080fd5b506103a1611b8a565b6040516103ae9190612fad565b60405180910390f35b3480156103c357600080fd5b506103cc611d5f565b6040516103d99190613046565b60405180910390f35b3480156103ee57600080fd5b506103f7611d72565b6040516104049190613120565b60405180910390f35b34801561041957600080fd5b50610422611ee4565b60405161042f91906132b4565b60405180910390f35b34801561044457600080fd5b5061044d61210b565b60405161045a9190613046565b60405180910390f35b6010818154811061047357600080fd5b906000526020600020906007020160009150905080600001805461049690613305565b80601f01602080910402602001604051908101604052809291908181526020018280546104c290613305565b801561050f5780601f106104e45761010080835404028352916020019161050f565b820191906000526020600020905b8154815290600101906020018083116104f257829003601f168201915b5050505050908060010160009054906101000a900460ff16908060010160019054906101000a900460ff16908060020154908060030160009054906101000a900473ffffffffffffffffffffffffffffffffffffffff16908060040154908060050160009054906101000a900460ff16908060060154905088565b600280600381111561059f5761059e612fcf565b5b601260009054906101000a900460ff1660038111156105c1576105c0612fcf565b5b146105cb57600080fd5b6000601160003373ffffffffffffffffffffffffffffffffffffffff1673ffffffffffffffffffffffffffffffffffffffff16815260200190815260200160002090508060050160009054906101000a900460ff168061063057506013805490508310155b806106ab57503373ffffffffffffffffffffffffffffffffffffffff166013848154811061066157610660613337565b5b906000526020600020906005020160040160009054906101000a900473ffffffffffffffffffffffffffffffffffffffff1673ffffffffffffffffffffffffffffffffffffffff16145b156106b557600080fd5b60018160050160006101000a81548160ff0219169083151502179055508281600601819055508060040154601384815481106106f4576106f3613337565b5b906000526020600020906005020160030160008282546107149190613395565b92505081905550600260030160009054906101000a900473ffffffffffffffffffffffffffffffffffffffff1673ffffffffffffffffffffffffffffffffffffffff163373ffffffffffffffffffffffffffffffffffffffff16141561077f57826002600601819055505b610787612122565b156107e4576003601260006101000a81548160ff021916908360038111156107b2576107b1612fcf565b5b02179055507f6ac0c89219f0135e3a87cecdf1851abced71da933a0a00e1eada0ef03538235160405160405180910390a15b505050565b601381815481106107f957600080fd5b906000526020600020906005020160009150905080600001805461081c90613305565b80601f016020809104026020016040519081016040528092919081815260200182805461084890613305565b80156108955780601f1061086a57610100808354040283529160200191610895565b820191906000526020600020905b81548152906001019060200180831161087857829003601f168201915b5050505050908060010154908060020154908060030154908060040160009054906101000a900473ffffffffffffffffffffffffffffffffffffffff16905085565b601160003373ffffffffffffffffffffffffffffffffffffffff1673ffffffffffffffffffffffffffffffffffffffff16815260200190815260200160002060050160009054906101000a900460ff161561093157600080fd5b60106040518061010001604052808681526020016000151581526020016000151581526020018581526020013373ffffffffffffffffffffffffffffffffffffffff168152602001600181526020016000151581526020016000815250908060018154018082558091505060019003906000526020600020906007020160009091909190915060008201518160000190805190602001906109d39291906126ce565b5060208201518160010160006101000a81548160ff02191690831515021790555060408201518160010160016101000a81548160ff0219169083151502179055506060820151816002015560808201518160030160006101000a81548173ffffffffffffffffffffffffffffffffffffffff021916908373ffffffffffffffffffffffffffffffffffffffff16021790555060a0820151816004015560c08201518160050160006101000a81548160ff02191690831515021790555060e082015181600601555050601060165481548110610ab157610ab0613337565b5b9060005260206000209060070201601160003373ffffffffffffffffffffffffffffffffffffffff1673ffffffffffffffffffffffffffffffffffffffff1681526020019081526020016000206000820181600001908054610b1290613305565b610b1d929190612754565b506001820160009054906101000a900460ff168160010160006101000a81548160ff0219169083151502179055506001820160019054906101000a900460ff168160010160016101000a81548160ff021916908315150217905550600282015481600201556003820160009054906101000a900473ffffffffffffffffffffffffffffffffffffffff168160030160006101000a81548173ffffffffffffffffffffffffffffffffffffffff021916908373ffffffffffffffffffffffffffffffffffffffff160217905550600482015481600401556005820160009054906101000a900460ff168160050160006101000a81548160ff0219169083151502179055506006820154816006015590505060136040518060a00160405280868152602001838152602001848152602001600081526020013373ffffffffffffffffffffffffffffffffffffffff1681525090806001815401808255809150506001900390600052602060002090600502016000909190919091506000820151816000019080519060200190610cb29291906126ce565b5060208201518160010155604082015181600201556060820151816003015560808201518160040160006101000a81548173ffffffffffffffffffffffffffffffffffffffff021916908373ffffffffffffffffffffffffffffffffffffffff160217905550505060166000815480929190610d2d906133eb565b91905055508260176000828254610d449190613395565b9250508190555050505050565b600060010160009054906101000a900473ffffffffffffffffffffffffffffffffffffffff1673ffffffffffffffffffffffffffffffffffffffff163373ffffffffffffffffffffffffffffffffffffffff1614610dae57600080fd5b600060010160009054906101000a900473ffffffffffffffffffffffffffffffffffffffff1673ffffffffffffffffffffffffffffffffffffffff168173ffffffffffffffffffffffffffffffffffffffff161415610e0c57600080fd5b604051806101000160405280604051806020016040528060008152508152602001600115158152602001600115158152602001600081526020018273ffffffffffffffffffffffffffffffffffffffff16815260200160028152602001600015158152602001600081525060026000820151816000019080519060200190610e959291906126ce565b5060208201518160010160006101000a81548160ff02191690831515021790555060408201518160010160016101000a81548160ff0219169083151502179055506060820151816002015560808201518160030160006101000a81548173ffffffffffffffffffffffffffffffffffffffff021916908373ffffffffffffffffffffffffffffffffffffffff16021790555060a0820151816004015560c08201518160050160006101000a81548160ff02191690831515021790555060e082015181600601559050508160008001819055505050565b610f736127e1565b6000604051806040016040529081600082015481526020016001820160009054906101000a900473ffffffffffffffffffffffffffffffffffffffff1673ffffffffffffffffffffffffffffffffffffffff1673ffffffffffffffffffffffffffffffffffffffff1681525050905090565b600060010160009054906101000a900473ffffffffffffffffffffffffffffffffffffffff1673ffffffffffffffffffffffffffffffffffffffff163373ffffffffffffffffffffffffffffffffffffffff161461104257600080fd5b6000800154601754108061105e57506002800154600080015411155b1561106857600080fd5b6110706121f3565b6000600280015490506000600190505b60165481101561111e576001601082815481106110a05761109f613337565b5b906000526020600020906007020160010160016101000a81548160ff021916908315150217905550601081815481106110dc576110db613337565b5b906000526020600020906007020160020154826110f99190613395565b91506000800154821061110b5761111e565b8080611116906133eb565b915050611080565b506002601260006101000a81548160ff0219169083600381111561114557611144612fcf565b5b021790555050565b601160205280600052604060002060009150905080600001805461117090613305565b80601f016020809104026020016040519081016040528092919081815260200182805461119c90613305565b80156111e95780601f106111be576101008083540402835291602001916111e9565b820191906000526020600020905b8154815290600101906020018083116111cc57829003601f168201915b5050505050908060010160009054906101000a900460ff16908060010160019054906101000a900460ff16908060020154908060030160009054906101000a900473ffffffffffffffffffffffffffffffffffffffff16908060040154908060050160009054906101000a900460ff16908060060154905088565b600980600001805461127590613305565b80601f01602080910402602001604051908101604052809291908181526020018280546112a190613305565b80156112ee5780601f106112c3576101008083540402835291602001916112ee565b820191906000526020600020905b8154815290600101906020018083116112d157829003601f168201915b5050505050908060010160009054906101000a900460ff16908060010160019054906101000a900460ff16908060020154908060030160009054906101000a900473ffffffffffffffffffffffffffffffffffffffff16908060040154908060050160009054906101000a900460ff16908060060154905088565b600280600001805461137a90613305565b80601f01602080910402602001604051908101604052809291908181526020018280546113a690613305565b80156113f35780601f106113c8576101008083540402835291602001916113f3565b820191906000526020600020905b8154815290600101906020018083116113d657829003601f168201915b5050505050908060010160009054906101000a900460ff16908060010160019054906101000a900460ff16908060020154908060030160009054906101000a900473ffffffffffffffffffffffffffffffffffffffff16908060040154908060050160009054906101000a900460ff16908060060154905088565b600380600381111561148357611482612fcf565b5b601260009054906101000a900460ff1660038111156114a5576114a4612fcf565b5b146114af57600080fd5b600260030160009054906101000a900473ffffffffffffffffffffffffffffffffffffffff1673ffffffffffffffffffffffffffffffffffffffff163373ffffffffffffffffffffffffffffffffffffffff161461150c57600080fd5b60005b6013805490508160ff16101561161b5760145460138260ff168154811061153957611538613337565b5b906000526020600020906005020160030154111561158f5760138160ff168154811061156857611567613337565b5b9060005260206000209060050201600301546014819055508060ff16601581905550611608565b60145460138260ff16815481106115a9576115a8613337565b5b9060005260206000209060050201600301541480156115f15750600060138260ff16815481106115dc576115db613337565b5b90600052602060002090600502016003015414155b156116075760026006015460158190555061161b565b5b808061161390613441565b91505061150f565b5060006014541161162f5761162e61346b565b5b50565b600260030160009054906101000a900473ffffffffffffffffffffffffffffffffffffffff1673ffffffffffffffffffffffffffffffffffffffff163373ffffffffffffffffffffffffffffffffffffffff161461168f57600080fd5b82600280018190555083600260000190805190602001906116b19291906126ce565b5060106002908060018154018082558091505060019003906000526020600020906007020160009091909190915060008201816000019080546116f390613305565b6116fe929190612754565b506001820160009054906101000a900460ff168160010160006101000a81548160ff0219169083151502179055506001820160019054906101000a900460ff168160010160016101000a81548160ff021916908315150217905550600282015481600201556003820160009054906101000a900473ffffffffffffffffffffffffffffffffffffffff168160030160006101000a81548173ffffffffffffffffffffffffffffffffffffffff021916908373ffffffffffffffffffffffffffffffffffffffff160217905550600482015481600401556005820160009054906101000a900460ff168160050160006101000a81548160ff02191690831515021790555060068201548160060155505060136040518060a00160405280868152602001838152602001848152602001600081526020013373ffffffffffffffffffffffffffffffffffffffff16815250908060018154018082558091505060019003906000526020600020906005020160009091909190915060008201518160000190805190602001906118929291906126ce565b5060208201518160010155604082015181600201556060820151816003015560808201518160040160006101000a81548173ffffffffffffffffffffffffffffffffffffffff021916908373ffffffffffffffffffffffffffffffffffffffff16021790555050506016600081548092919061190d906133eb565b9190505550600260116000600260030160009054906101000a900473ffffffffffffffffffffffffffffffffffffffff1673ffffffffffffffffffffffffffffffffffffffff1673ffffffffffffffffffffffffffffffffffffffff168152602001908152602001600020600082018160000190805461198c90613305565b611997929190612754565b506001820160009054906101000a900460ff168160010160006101000a81548160ff0219169083151502179055506001820160019054906101000a900460ff168160010160016101000a81548160ff021916908315150217905550600282015481600201556003820160009054906101000a900473ffffffffffffffffffffffffffffffffffffffff168160030160006101000a81548173ffffffffffffffffffffffffffffffffffffffff021916908373ffffffffffffffffffffffffffffffffffffffff160217905550600482015481600401556005820160009054906101000a900460ff168160050160006101000a81548160ff021916908315150217905550600682015481600601559050508260176000828254611ab99190613395565b925050819055506001601260006101000a81548160ff02191690836003811115611ae657611ae5612fcf565b5b021790555050505050565b60008060000154908060010160009054906101000a900473ffffffffffffffffffffffffffffffffffffffff16905082565b6000600260030160009054906101000a900473ffffffffffffffffffffffffffffffffffffffff1673ffffffffffffffffffffffffffffffffffffffff163373ffffffffffffffffffffffffffffffffffffffff1614611b8257600080fd5b601554905090565b6060600060165467ffffffffffffffff811115611baa57611ba9612b38565b5b604051908082528060200260200182016040528015611be357816020015b611bd0612811565b815260200190600190039081611bc85790505b50905060005b601654811015611d575760138181548110611c0757611c06613337565b5b90600052602060002090600502016040518060a0016040529081600082018054611c3090613305565b80601f0160208091040260200160405190810160405280929190818152602001828054611c5c90613305565b8015611ca95780601f10611c7e57610100808354040283529160200191611ca9565b820191906000526020600020905b815481529060010190602001808311611c8c57829003601f168201915b505050505081526020016001820154815260200160028201548152602001600382015481526020016004820160009054906101000a900473ffffffffffffffffffffffffffffffffffffffff1673ffffffffffffffffffffffffffffffffffffffff1673ffffffffffffffffffffffffffffffffffffffff1681525050828281518110611d3957611d38613337565b5b60200260200101819052508080611d4f906133eb565b915050611be9565b508091505090565b601260009054906101000a900460ff1681565b611d7a612856565b600260405180610100016040529081600082018054611d9890613305565b80601f0160208091040260200160405190810160405280929190818152602001828054611dc490613305565b8015611e115780601f10611de657610100808354040283529160200191611e11565b820191906000526020600020905b815481529060010190602001808311611df457829003601f168201915b505050505081526020016001820160009054906101000a900460ff161515151581526020016001820160019054906101000a900460ff16151515158152602001600282015481526020016003820160009054906101000a900473ffffffffffffffffffffffffffffffffffffffff1673ffffffffffffffffffffffffffffffffffffffff1673ffffffffffffffffffffffffffffffffffffffff168152602001600482015481526020016005820160009054906101000a900460ff16151515158152602001600682015481525050905090565b6060600060165467ffffffffffffffff811115611f0457611f03612b38565b5b604051908082528060200260200182016040528015611f3d57816020015b611f2a612856565b815260200190600190039081611f225790505b50905060005b6016548110156121035760108181548110611f6157611f60613337565b5b906000526020600020906007020160405180610100016040529081600082018054611f8b90613305565b80601f0160208091040260200160405190810160405280929190818152602001828054611fb790613305565b80156120045780601f10611fd957610100808354040283529160200191612004565b820191906000526020600020905b815481529060010190602001808311611fe757829003601f168201915b505050505081526020016001820160009054906101000a900460ff161515151581526020016001820160019054906101000a900460ff16151515158152602001600282015481526020016003820160009054906101000a900473ffffffffffffffffffffffffffffffffffffffff1673ffffffffffffffffffffffffffffffffffffffff1673ffffffffffffffffffffffffffffffffffffffff168152602001600482015481526020016005820160009054906101000a900460ff161515151581526020016006820154815250508282815181106120e5576120e4613337565b5b602002602001018190525080806120fb906133eb565b915050611f43565b508091505090565b6000601260009054906101000a900460ff16905090565b600080600090505b6016548110156121ea57601160006010838154811061214c5761214b613337565b5b906000526020600020906007020160030160009054906101000a900473ffffffffffffffffffffffffffffffffffffffff1673ffffffffffffffffffffffffffffffffffffffff1673ffffffffffffffffffffffffffffffffffffffff16815260200190815260200160002060050160009054906101000a900460ff166121d75760009150506121f0565b80806121e2906133eb565b91505061212a565b50600190505b90565b6000600190505b6001601654612209919061349a565b8110156126cb576000600190505b600182601654612227919061349a565b612231919061349a565b8110156126b7576010828154811061224c5761224b613337565b5b9060005260206000209060070201600201546010828154811061227257612271613337565b5b90600052602060002090600702016002015411156126a4576010818154811061229e5761229d613337565b5b9060005260206000209060070201600960008201816000019080546122c290613305565b6122cd929190612754565b506001820160009054906101000a900460ff168160010160006101000a81548160ff0219169083151502179055506001820160019054906101000a900460ff168160010160016101000a81548160ff021916908315150217905550600282015481600201556003820160009054906101000a900473ffffffffffffffffffffffffffffffffffffffff168160030160006101000a81548173ffffffffffffffffffffffffffffffffffffffff021916908373ffffffffffffffffffffffffffffffffffffffff160217905550600482015481600401556005820160009054906101000a900460ff168160050160006101000a81548160ff02191690831515021790555060068201548160060155905050601082815481106123f1576123f0613337565b5b90600052602060002090600702016010828154811061241357612412613337565b5b9060005260206000209060070201600082018160000190805461243590613305565b612440929190612754565b506001820160009054906101000a900460ff168160010160006101000a81548160ff0219169083151502179055506001820160019054906101000a900460ff168160010160016101000a81548160ff021916908315150217905550600282015481600201556003820160009054906101000a900473ffffffffffffffffffffffffffffffffffffffff168160030160006101000a81548173ffffffffffffffffffffffffffffffffffffffff021916908373ffffffffffffffffffffffffffffffffffffffff160217905550600482015481600401556005820160009054906101000a900460ff168160050160006101000a81548160ff0219169083151502179055506006820154816006015590505060096010838154811061256657612565613337565b5b9060005260206000209060070201600082018160000190805461258890613305565b612593929190612754565b506001820160009054906101000a900460ff168160010160006101000a81548160ff0219169083151502179055506001820160019054906101000a900460ff168160010160016101000a81548160ff021916908315150217905550600282015481600201556003820160009054906101000a900473ffffffffffffffffffffffffffffffffffffffff168160030160006101000a81548173ffffffffffffffffffffffffffffffffffffffff021916908373ffffffffffffffffffffffffffffffffffffffff160217905550600482015481600401556005820160009054906101000a900460ff168160050160006101000a81548160ff021916908315150217905550600682015481600601559050505b80806126af906133eb565b915050612217565b5080806126c3906133eb565b9150506121fa565b50565b8280546126da90613305565b90600052602060002090601f0160209004810192826126fc5760008555612743565b82601f1061271557805160ff1916838001178555612743565b82800160010185558215612743579182015b82811115612742578251825591602001919060010190612727565b5b50905061275091906128b7565b5090565b82805461276090613305565b90600052602060002090601f01602090048101928261278257600085556127d0565b82601f1061279357805485556127d0565b828001600101855582156127d057600052602060002091601f016020900482015b828111156127cf5782548255916001019190600101906127b4565b5b5090506127dd91906128b7565b5090565b604051806040016040528060008152602001600073ffffffffffffffffffffffffffffffffffffffff1681525090565b6040518060a0016040528060608152602001600081526020016000815260200160008152602001600073ffffffffffffffffffffffffffffffffffffffff1681525090565b6040518061010001604052806060815260200160001515815260200160001515815260200160008152602001600073ffffffffffffffffffffffffffffffffffffffff16815260200160008152602001600015158152602001600081525090565b5b808211156128d05760008160009055506001016128b8565b5090565b6000604051905090565b600080fd5b600080fd5b6000819050919050565b6128fb816128e8565b811461290657600080fd5b50565b600081359050612918816128f2565b92915050565b600060208284031215612934576129336128de565b5b600061294284828501612909565b91505092915050565b600081519050919050565b600082825260208201905092915050565b60005b8381101561298557808201518184015260208101905061296a565b83811115612994576000848401525b50505050565b6000601f19601f8301169050919050565b60006129b68261294b565b6129c08185612956565b93506129d0818560208601612967565b6129d98161299a565b840191505092915050565b60008115159050919050565b6129f9816129e4565b82525050565b612a08816128e8565b82525050565b600073ffffffffffffffffffffffffffffffffffffffff82169050919050565b6000612a3982612a0e565b9050919050565b612a4981612a2e565b82525050565b6000610100820190508181036000830152612a6a818b6129ab565b9050612a79602083018a6129f0565b612a8660408301896129f0565b612a9360608301886129ff565b612aa06080830187612a40565b612aad60a08301866129ff565b612aba60c08301856129f0565b612ac760e08301846129ff565b9998505050505050505050565b600060a0820190508181036000830152612aee81886129ab565b9050612afd60208301876129ff565b612b0a60408301866129ff565b612b1760608301856129ff565b612b246080830184612a40565b9695505050505050565b600080fd5b600080fd5b7f4e487b7100000000000000000000000000000000000000000000000000000000600052604160045260246000fd5b612b708261299a565b810181811067ffffffffffffffff82111715612b8f57612b8e612b38565b5b80604052505050565b6000612ba26128d4565b9050612bae8282612b67565b919050565b600067ffffffffffffffff821115612bce57612bcd612b38565b5b612bd78261299a565b9050602081019050919050565b82818337600083830152505050565b6000612c06612c0184612bb3565b612b98565b905082815260208101848484011115612c2257612c21612b33565b5b612c2d848285612be4565b509392505050565b600082601f830112612c4a57612c49612b2e565b5b8135612c5a848260208601612bf3565b91505092915050565b60008060008060808587031215612c7d57612c7c6128de565b5b600085013567ffffffffffffffff811115612c9b57612c9a6128e3565b5b612ca787828801612c35565b9450506020612cb887828801612909565b9350506040612cc987828801612909565b9250506060612cda87828801612909565b91505092959194509250565b612cef81612a2e565b8114612cfa57600080fd5b50565b600081359050612d0c81612ce6565b92915050565b60008060408385031215612d2957612d286128de565b5b6000612d3785828601612909565b9250506020612d4885828601612cfd565b9150509250929050565b612d5b816128e8565b82525050565b612d6a81612a2e565b82525050565b604082016000820151612d866000850182612d52565b506020820151612d996020850182612d61565b50505050565b6000604082019050612db46000830184612d70565b92915050565b600060208284031215612dd057612dcf6128de565b5b6000612dde84828501612cfd565b91505092915050565b6000604082019050612dfc60008301856129ff565b612e096020830184612a40565b9392505050565b6000602082019050612e2560008301846129ff565b92915050565b600081519050919050565b600082825260208201905092915050565b6000819050602082019050919050565b600082825260208201905092915050565b6000612e738261294b565b612e7d8185612e57565b9350612e8d818560208601612967565b612e968161299a565b840191505092915050565b600060a0830160008301518482036000860152612ebe8282612e68565b9150506020830151612ed36020860182612d52565b506040830151612ee66040860182612d52565b506060830151612ef96060860182612d52565b506080830151612f0c6080860182612d61565b508091505092915050565b6000612f238383612ea1565b905092915050565b6000602082019050919050565b6000612f4382612e2b565b612f4d8185612e36565b935083602082028501612f5f85612e47565b8060005b85811015612f9b5784840389528151612f7c8582612f17565b9450612f8783612f2b565b925060208a01995050600181019050612f63565b50829750879550505050505092915050565b60006020820190508181036000830152612fc78184612f38565b905092915050565b7f4e487b7100000000000000000000000000000000000000000000000000000000600052602160045260246000fd5b6004811061300f5761300e612fcf565b5b50565b600081905061302082612ffe565b919050565b600061303082613012565b9050919050565b61304081613025565b82525050565b600060208201905061305b6000830184613037565b92915050565b61306a816129e4565b82525050565b600061010083016000830151848203600086015261308e8282612e68565b91505060208301516130a36020860182613061565b5060408301516130b66040860182613061565b5060608301516130c96060860182612d52565b5060808301516130dc6080860182612d61565b5060a08301516130ef60a0860182612d52565b5060c083015161310260c0860182613061565b5060e083015161311560e0860182612d52565b508091505092915050565b6000602082019050818103600083015261313a8184613070565b905092915050565b600081519050919050565b600082825260208201905092915050565b6000819050602082019050919050565b600061010083016000830151848203600086015261318c8282612e68565b91505060208301516131a16020860182613061565b5060408301516131b46040860182613061565b5060608301516131c76060860182612d52565b5060808301516131da6080860182612d61565b5060a08301516131ed60a0860182612d52565b5060c083015161320060c0860182613061565b5060e083015161321360e0860182612d52565b508091505092915050565b600061322a838361316e565b905092915050565b6000602082019050919050565b600061324a82613142565b613254818561314d565b9350836020820285016132668561315e565b8060005b858110156132a25784840389528151613283858261321e565b945061328e83613232565b925060208a0199505060018101905061326a565b50829750879550505050505092915050565b600060208201905081810360008301526132ce818461323f565b905092915050565b7f4e487b7100000000000000000000000000000000000000000000000000000000600052602260045260246000fd5b6000600282049050600182168061331d57607f821691505b60208210811415613331576133306132d6565b5b50919050565b7f4e487b7100000000000000000000000000000000000000000000000000000000600052603260045260246000fd5b7f4e487b7100000000000000000000000000000000000000000000000000000000600052601160045260246000fd5b60006133a0826128e8565b91506133ab836128e8565b9250827fffffffffffffffffffffffffffffffffffffffffffffffffffffffffffffffff038211156133e0576133df613366565b5b828201905092915050565b60006133f6826128e8565b91507fffffffffffffffffffffffffffffffffffffffffffffffffffffffffffffffff82141561342957613428613366565b5b600182019050919050565b600060ff82169050919050565b600061344c82613434565b915060ff8214156134605761345f613366565b5b600182019050919050565b7f4e487b7100000000000000000000000000000000000000000000000000000000600052600160045260246000fd5b60006134a5826128e8565b91506134b0836128e8565b9250828210156134c3576134c2613366565b5b82820390509291505056fea26469706673582212204e1d4db2ce6eb3f4634b415cc6d228c390aac3351488225668c899f9bbe9272d64736f6c634300080a0033",
  "immutableReferences": {},
  "source": "pragma solidity >= 0.4.22 < 0.9.0;\n\ncontract SyndicateLoan {\n\n    struct Borrower {\n        uint256 loanAmount;\n        address addr;\n    }\n    \n    struct Bank {\n        string name;\n        bool isAdmin;\n        bool isParticipating;\n        uint256 riskLimit;\n        address addr;\n        uint weight;\n        bool voted;\n        uint256 vote;\n    }\n    \n    struct Proposal {\n        string name;\n        uint256 interest;\n        uint256 tenure;\n        uint256 voteCount;\n        address addr;\n    }\n\n    Borrower public borrower;\n    \n    Bank public adminBank;\n    Bank public temp1;\n    Bank[] public banks;\n    mapping(address => Bank) public bankDetails;\n    \n    enum Stage {Init,Reg, Vote, Done}\n    Stage public stage = Stage.Init;\n    \n    Proposal[] public proposals;\n\n    uint256 winningVoteCount = 0;\n    uint256 _winningProposal;\n\n    event votingCompleted();\n    \n    //uint public startTime;\n    //modifiers\n   modifier validStage(Stage reqStage)\n    { require(stage == reqStage);\n      _;\n    }\n\n    uint counter = 0;\n    uint totalriskLimit = 0;\n\n    constructor () {\n        borrower = Borrower({loanAmount: 0, addr: msg.sender});\n    }\n\n    modifier onlyOwner {\n        require(msg.sender == borrower.addr);\n        _;\n    }\n    \n    modifier onlyAdmin {\n        require(msg.sender == adminBank.addr);\n        _;\n    }\n\n    function setInitials(uint _loanAmount, address _adminBankAddress) public onlyOwner{\n        if(_adminBankAddress == borrower.addr)\n            revert();\n        adminBank = Bank({\n            name: \"\",\n            isAdmin: true,\n            isParticipating: true, \n            riskLimit: 0, \n            addr: _adminBankAddress,\n            weight: 2,\n            voted: false,\n            vote: 0\n        });\n        borrower.loanAmount = _loanAmount;\n    }\n    \n    function setAdminRiskLimit(string memory _name, uint256 _riskLimit, uint256 _tenure, uint256 _interest) public onlyAdmin {\n        adminBank.riskLimit = _riskLimit;\n        adminBank.name = _name;\n        banks.push(adminBank);\n        proposals.push(Proposal({\n            name: _name,\n            interest: _interest,\n            tenure: _tenure,\n            voteCount: 0,\n            addr: msg.sender\n        })); \n        counter++;\n        bankDetails[adminBank.addr] = adminBank;\n        totalriskLimit += _riskLimit;\n        stage = Stage.Reg;\n        //startTime = block.timestamp;\n    }\n    \n    function registerBank(string memory _name, uint256 _riskLimit, uint256 _tenure, uint256 _interest) public {\n        if (bankDetails[msg.sender].voted) \n            revert();\n        banks.push(Bank({\n            name: _name,\n            isAdmin: false, \n            isParticipating: false, \n            riskLimit: _riskLimit, \n            addr: msg.sender,\n            weight: 1,\n            voted: false,\n            vote: 0\n        }));\n        bankDetails[msg.sender] = banks[counter];\n        proposals.push(Proposal({\n            name: _name,\n            interest: _interest,\n            tenure: _tenure,\n            voteCount: 0,\n            addr: msg.sender\n        })); \n        counter++;\n        totalriskLimit += _riskLimit;\n    }\n    \n    function instantiateLoan() public onlyOwner payable{\n        if(totalriskLimit < borrower.loanAmount || borrower.loanAmount <= adminBank.riskLimit){\n            revert();\n        }\n        //syndicate loan with other banks\n        sortBanksWithRiskLimit();\n        uint curr = adminBank.riskLimit;\n            \n        for(uint i = 1;i < counter;i++){\n            //also need to store participating banks\n            banks[i].isParticipating = true;\n            curr += banks[i].riskLimit;\n                \n            if(curr >= borrower.loanAmount)\n                break;\n        }\n        //startTime = block.timestamp;\n        stage = Stage.Vote;  \n    }\n    \n    function sortBanksWithRiskLimit() private{\n        for(uint i = 1;i < counter-1;i++){\n            for(uint j = 1;j < counter-i-1;j++){\n                if(banks[j].riskLimit > banks[i].riskLimit){\n                    temp1 = banks[j];\n                    banks[j] = banks[i];\n                    banks[i] = temp1;\n                }\n            }\n        }\n    }\n    \n    function getBorrower() public view returns(Borrower memory) {\n        return borrower;\n    }\n\n    function getStage() public view returns(Stage) {\n        return stage;\n    }\n\n    function getAdminBank() public view returns(Bank memory) {\n        return adminBank;\n    }\n\n    function getAllBankDetails() public view returns(Bank[] memory) {\n        Bank[] memory temp = new Bank[](counter);\n        for(uint i = 0;i < counter;i++){\n            temp[i] = banks[i];\n        }\n        return temp;\n    }\n\n    function getProposal() public view returns(Proposal[] memory) {\n        Proposal[] memory temp = new Proposal[](counter);\n        for(uint i = 0;i < counter;i++){\n            temp[i] = proposals[i];\n        }\n        return temp;\n    }\n\n    /// Give a single vote to proposal $(toProposal).\n    function vote(uint256 toProposal) public validStage(Stage.Vote)  {\n       // if (stage != Stage.Vote) {return;}\n        Bank storage sender = bankDetails[msg.sender];\n        if (sender.voted || toProposal >= proposals.length || proposals[toProposal].addr == msg.sender) \n            revert();\n        sender.voted = true;\n        sender.vote = toProposal;   \n        proposals[toProposal].voteCount += sender.weight;\n        if(msg.sender == adminBank.addr)\n            adminBank.vote = toProposal;\n        if(check()) {\n            stage = Stage.Done;\n            emit votingCompleted();    \n        }\n    }\n\n    function check() private view returns (bool) {\n        for(uint i = 0;i < counter;i++){\n            if(!bankDetails[banks[i].addr].voted)\n                return false;\n        }\n        return true;\n    }\n\n    function winningProposal() public validStage(Stage.Done) onlyAdmin {\n       //if(stage != Stage.Done) {return;}\n        for (uint8 prop = 0; prop < proposals.length; prop++)\n            if (proposals[prop].voteCount > winningVoteCount) {\n                winningVoteCount = proposals[prop].voteCount;\n                _winningProposal = prop;\n            }\n            else if (proposals[prop].voteCount == winningVoteCount && proposals[prop].voteCount!=0) {\n                _winningProposal = adminBank.vote;\n                break;\n            }\n       assert (winningVoteCount > 0);\n       //return _winningProposal;\n    }\n\n    function getWinningProposal() public view onlyAdmin returns(uint256)  {\n        return _winningProposal;\n    }\n\n    // function validateAmount(uint256 amount) return (bool){\n        \n    // }\n    \n    \n}",
  "sourcePath": "/mnt/c/Users/91790/OneDrive/Documents/VIT/CSE4001/project4/contracts/SyndicateLoan.sol",
  "compiler": {
    "name": "solc",
    "version": "0.8.10+commit.fc410830.Emscripten.clang"
  },
  "schemaVersion": "3.4.3",
  "updatedAt": "2021-12-01T10:54:38.931Z",
  "networkType": "ethereum",
  "devdoc": {
    "kind": "dev",
    "methods": {},
    "version": 1
  },
  "userdoc": {
    "kind": "user",
    "methods": {
      "vote(uint256)": {
        "notice": "Give a single vote to proposal $(toProposal)."
      }
    },
    "version": 1
  }
}